{
  "contractName": "SwayToken",
  "abi": [
    {
      "constant": true,
      "inputs": [],
      "name": "name",
      "outputs": [
        {
          "name": "",
          "type": "string"
        }
      ],
      "payable": false,
      "stateMutability": "view",
      "type": "function",
      "signature": "0x06fdde03"
    },
    {
      "constant": true,
      "inputs": [],
      "name": "decimals",
      "outputs": [
        {
          "name": "",
          "type": "uint8"
        }
      ],
      "payable": false,
      "stateMutability": "view",
      "type": "function",
      "signature": "0x313ce567"
    },
    {
      "constant": false,
      "inputs": [],
      "name": "acceptOwnership",
      "outputs": [],
      "payable": false,
      "stateMutability": "nonpayable",
      "type": "function",
      "signature": "0x79ba5097"
    },
    {
      "constant": true,
      "inputs": [],
      "name": "owner",
      "outputs": [
        {
          "name": "",
          "type": "address"
        }
      ],
      "payable": false,
      "stateMutability": "view",
      "type": "function",
      "signature": "0x8da5cb5b"
    },
    {
      "constant": true,
      "inputs": [],
      "name": "symbol",
      "outputs": [
        {
          "name": "",
          "type": "string"
        }
      ],
      "payable": false,
      "stateMutability": "view",
      "type": "function",
      "signature": "0x95d89b41"
    },
    {
      "constant": true,
      "inputs": [],
      "name": "newOwner",
      "outputs": [
        {
          "name": "",
          "type": "address"
        }
      ],
      "payable": false,
      "stateMutability": "view",
      "type": "function",
      "signature": "0xd4ee1d90"
    },
    {
      "constant": false,
      "inputs": [
        {
          "name": "_newOwner",
          "type": "address"
        }
      ],
      "name": "transferOwnership",
      "outputs": [],
      "payable": false,
      "stateMutability": "nonpayable",
      "type": "function",
      "signature": "0xf2fde38b"
    },
    {
      "inputs": [],
      "payable": false,
      "stateMutability": "nonpayable",
      "type": "constructor",
      "signature": "constructor"
    },
    {
      "payable": true,
      "stateMutability": "payable",
      "type": "fallback"
    },
    {
      "anonymous": false,
      "inputs": [
        {
          "indexed": true,
          "name": "_from",
          "type": "address"
        },
        {
          "indexed": true,
          "name": "_to",
          "type": "address"
        }
      ],
      "name": "OwnershipTransferred",
      "type": "event",
      "signature": "0x8be0079c531659141344cd1fd0a4f28419497f9722a3daafe3b4186f6b6457e0"
    },
    {
      "anonymous": false,
      "inputs": [
        {
          "indexed": true,
          "name": "from",
          "type": "address"
        },
        {
          "indexed": true,
          "name": "to",
          "type": "address"
        },
        {
          "indexed": false,
          "name": "tokens",
          "type": "uint256"
        }
      ],
      "name": "Transfer",
      "type": "event",
      "signature": "0xddf252ad1be2c89b69c2b068fc378daa952ba7f163c4a11628f55a4df523b3ef"
    },
    {
      "anonymous": false,
      "inputs": [
        {
          "indexed": true,
          "name": "from",
          "type": "address"
        },
        {
          "indexed": true,
          "name": "to",
          "type": "address"
        },
        {
          "indexed": false,
          "name": "tokens",
          "type": "uint256"
        },
        {
          "indexed": false,
          "name": "destorigin",
          "type": "uint256"
        }
      ],
      "name": "Margin",
      "type": "event",
      "signature": "0x2a98f44c2e4354e89bd6d840df8a26a2266846b85f9e8b408f0d83fcf1f97ee3"
    },
    {
      "anonymous": false,
      "inputs": [
        {
          "indexed": true,
          "name": "tokenOwner",
          "type": "address"
        },
        {
          "indexed": true,
          "name": "spender",
          "type": "address"
        },
        {
          "indexed": false,
          "name": "tokens",
          "type": "uint256"
        }
      ],
      "name": "Approval",
      "type": "event",
      "signature": "0x8c5be1e5ebec7d5bd14f71427d1e84f3dd0314c0f7b2291e5b200ac8c7c3b925"
    },
    {
      "constant": true,
      "inputs": [],
      "name": "contractOwner",
      "outputs": [
        {
          "name": "",
          "type": "address"
        }
      ],
      "payable": false,
      "stateMutability": "view",
      "type": "function",
      "signature": "0xce606ee0"
    },
    {
      "constant": true,
      "inputs": [],
      "name": "totalSupply",
      "outputs": [
        {
          "name": "",
          "type": "uint256"
        }
      ],
      "payable": false,
      "stateMutability": "view",
      "type": "function",
      "signature": "0x18160ddd"
    },
    {
      "constant": true,
      "inputs": [
        {
          "name": "tokenOwner",
          "type": "address"
        }
      ],
      "name": "balanceOf",
      "outputs": [
        {
          "name": "balance",
          "type": "uint256"
        }
      ],
      "payable": false,
      "stateMutability": "view",
      "type": "function",
      "signature": "0x70a08231"
    },
    {
      "constant": true,
      "inputs": [
        {
          "name": "tokenOwner",
          "type": "address"
        }
      ],
      "name": "marginBalanceOf",
      "outputs": [
        {
          "name": "balance",
          "type": "uint256"
        }
      ],
      "payable": false,
      "stateMutability": "view",
      "type": "function",
      "signature": "0xee87c3b3"
    },
    {
      "constant": true,
      "inputs": [
        {
          "name": "tokenOwner",
          "type": "address"
        },
        {
          "name": "conversionRate",
          "type": "uint256"
        }
      ],
      "name": "balanceOfInEth",
      "outputs": [
        {
          "name": "balance",
          "type": "uint256"
        }
      ],
      "payable": false,
      "stateMutability": "view",
      "type": "function",
      "signature": "0xab604682"
    },
    {
      "constant": false,
      "inputs": [
        {
          "name": "to",
          "type": "address"
        },
        {
          "name": "tokens",
          "type": "uint256"
        }
      ],
      "name": "transfer",
      "outputs": [
        {
          "name": "success",
          "type": "bool"
        }
      ],
      "payable": false,
      "stateMutability": "nonpayable",
      "type": "function",
      "signature": "0xa9059cbb"
    },
    {
      "constant": false,
      "inputs": [
        {
          "name": "spender",
          "type": "address"
        },
        {
          "name": "tokens",
          "type": "uint256"
        }
      ],
      "name": "approve",
      "outputs": [
        {
          "name": "success",
          "type": "bool"
        }
      ],
      "payable": false,
      "stateMutability": "nonpayable",
      "type": "function",
      "signature": "0x095ea7b3"
    },
    {
      "constant": false,
      "inputs": [
        {
          "name": "from",
          "type": "address"
        },
        {
          "name": "to",
          "type": "address"
        },
        {
          "name": "tokens",
          "type": "uint256"
        }
      ],
      "name": "transferFrom",
      "outputs": [
        {
          "name": "success",
          "type": "bool"
        }
      ],
      "payable": false,
      "stateMutability": "nonpayable",
      "type": "function",
      "signature": "0x23b872dd"
    },
    {
      "constant": false,
      "inputs": [
        {
          "name": "from",
          "type": "address"
        },
        {
          "name": "to",
          "type": "address"
        },
        {
          "name": "tokens",
          "type": "uint256"
        }
      ],
      "name": "transferFromOwner",
      "outputs": [
        {
          "name": "success",
          "type": "bool"
        }
      ],
      "payable": false,
      "stateMutability": "nonpayable",
      "type": "function",
      "signature": "0xb8dbf876"
    },
    {
      "constant": false,
      "inputs": [
        {
          "name": "from",
          "type": "address"
        },
        {
          "name": "to",
          "type": "address"
        },
        {
          "name": "tokens",
          "type": "uint256"
        },
        {
          "name": "destorigin",
          "type": "uint256"
        }
      ],
      "name": "transferMargin",
      "outputs": [
        {
          "name": "success",
          "type": "bool"
        }
      ],
      "payable": false,
      "stateMutability": "nonpayable",
      "type": "function",
      "signature": "0x5964f227"
    },
    {
      "constant": true,
      "inputs": [
        {
          "name": "tokenOwner",
          "type": "address"
        },
        {
          "name": "spender",
          "type": "address"
        }
      ],
      "name": "allowance",
      "outputs": [
        {
          "name": "remaining",
          "type": "uint256"
        }
      ],
      "payable": false,
      "stateMutability": "view",
      "type": "function",
      "signature": "0xdd62ed3e"
    },
    {
      "constant": false,
      "inputs": [
        {
          "name": "spender",
          "type": "address"
        },
        {
          "name": "tokens",
          "type": "uint256"
        },
        {
          "name": "data",
          "type": "bytes"
        }
      ],
      "name": "approveAndCall",
      "outputs": [
        {
          "name": "success",
          "type": "bool"
        }
      ],
      "payable": false,
      "stateMutability": "nonpayable",
      "type": "function",
      "signature": "0xcae9ca51"
    },
    {
      "constant": false,
      "inputs": [
        {
          "name": "tokenAddress",
          "type": "address"
        },
        {
          "name": "tokens",
          "type": "uint256"
        }
      ],
      "name": "transferAnyERC20Token",
      "outputs": [
        {
          "name": "success",
          "type": "bool"
        }
      ],
      "payable": false,
      "stateMutability": "nonpayable",
      "type": "function",
      "signature": "0xdc39d06d"
    }
  ],
  "bytecode": "0x60806040523480156200001157600080fd5b50336000806101000a81548173ffffffffffffffffffffffffffffffffffffffff021916908373ffffffffffffffffffffffffffffffffffffffff1602179055506040805190810160405280600481526020017f5357415900000000000000000000000000000000000000000000000000000000815250600290805190602001906200009f92919062000221565b506040805190810160405280600a81526020017f5357415920546f6b656e0000000000000000000000000000000000000000000081525060039080519060200190620000ed92919062000221565b506002600460006101000a81548160ff021916908360ff160217905550600460009054906101000a900460ff1660ff16600a0a620f424002600581905550600554600660008060009054906101000a900473ffffffffffffffffffffffffffffffffffffffff1673ffffffffffffffffffffffffffffffffffffffff1673ffffffffffffffffffffffffffffffffffffffff168152602001908152602001600020819055506000809054906101000a900473ffffffffffffffffffffffffffffffffffffffff1673ffffffffffffffffffffffffffffffffffffffff16600073ffffffffffffffffffffffffffffffffffffffff167fddf252ad1be2c89b69c2b068fc378daa952ba7f163c4a11628f55a4df523b3ef6005546040518082815260200191505060405180910390a3620002d0565b828054600181600116156101000203166002900490600052602060002090601f016020900481019282601f106200026457805160ff191683800117855562000295565b8280016001018555821562000295579182015b828111156200029457825182559160200191906001019062000277565b5b509050620002a49190620002a8565b5090565b620002cd91905b80821115620002c9576000816000905550600101620002af565b5090565b90565b611e9480620002e06000396000f3fe608060405260043610610112576000357c0100000000000000000000000000000000000000000000000000000000900463ffffffff16806306fdde0314610117578063095ea7b3146101a757806318160ddd1461021a57806323b872dd14610245578063313ce567146102d85780635964f2271461030957806370a08231146103a657806379ba50971461040b5780638da5cb5b1461042257806395d89b4114610479578063a9059cbb14610509578063ab6046821461057c578063b8dbf876146105eb578063cae9ca511461067e578063ce606ee014610788578063d4ee1d90146107df578063dc39d06d14610836578063dd62ed3e146108a9578063ee87c3b31461092e578063f2fde38b14610993575b600080fd5b34801561012357600080fd5b5061012c6109e4565b6040518080602001828103825283818151815260200191508051906020019080838360005b8381101561016c578082015181840152602081019050610151565b50505050905090810190601f1680156101995780820380516001836020036101000a031916815260200191505b509250505060405180910390f35b3480156101b357600080fd5b50610200600480360360408110156101ca57600080fd5b81019080803573ffffffffffffffffffffffffffffffffffffffff16906020019092919080359060200190929190505050610a82565b604051808215151515815260200191505060405180910390f35b34801561022657600080fd5b5061022f610b74565b6040518082815260200191505060405180910390f35b34801561025157600080fd5b506102be6004803603606081101561026857600080fd5b81019080803573ffffffffffffffffffffffffffffffffffffffff169060200190929190803573ffffffffffffffffffffffffffffffffffffffff16906020019092919080359060200190929190505050610bcf565b604051808215151515815260200191505060405180910390f35b3480156102e457600080fd5b506102ed610e7a565b604051808260ff1660ff16815260200191505060405180910390f35b34801561031557600080fd5b5061038c6004803603608081101561032c57600080fd5b81019080803573ffffffffffffffffffffffffffffffffffffffff169060200190929190803573ffffffffffffffffffffffffffffffffffffffff1690602001909291908035906020019092919080359060200190929190505050610e8d565b604051808215151515815260200191505060405180910390f35b3480156103b257600080fd5b506103f5600480360360208110156103c957600080fd5b81019080803573ffffffffffffffffffffffffffffffffffffffff1690602001909291905050506112b2565b6040518082815260200191505060405180910390f35b34801561041757600080fd5b506104206112fb565b005b34801561042e57600080fd5b5061043761149a565b604051808273ffffffffffffffffffffffffffffffffffffffff1673ffffffffffffffffffffffffffffffffffffffff16815260200191505060405180910390f35b34801561048557600080fd5b5061048e6114bf565b6040518080602001828103825283818151815260200191508051906020019080838360005b838110156104ce5780820151818401526020810190506104b3565b50505050905090810190601f1680156104fb5780820380516001836020036101000a031916815260200191505b509250505060405180910390f35b34801561051557600080fd5b506105626004803603604081101561052c57600080fd5b81019080803573ffffffffffffffffffffffffffffffffffffffff1690602001909291908035906020019092919050505061155d565b604051808215151515815260200191505060405180910390f35b34801561058857600080fd5b506105d56004803603604081101561059f57600080fd5b81019080803573ffffffffffffffffffffffffffffffffffffffff169060200190929190803590602001909291905050506116f8565b6040518082815260200191505060405180910390f35b3480156105f757600080fd5b506106646004803603606081101561060e57600080fd5b81019080803573ffffffffffffffffffffffffffffffffffffffff169060200190929190803573ffffffffffffffffffffffffffffffffffffffff16906020019092919080359060200190929190505050611744565b604051808215151515815260200191505060405180910390f35b34801561068a57600080fd5b5061076e600480360360608110156106a157600080fd5b81019080803573ffffffffffffffffffffffffffffffffffffffff16906020019092919080359060200190929190803590602001906401000000008111156106e857600080fd5b8201836020820111156106fa57600080fd5b8035906020019184600183028401116401000000008311171561071c57600080fd5b91908080601f016020809104026020016040519081016040528093929190818152602001838380828437600081840152601f19601f8201169050808301925050505050505091929192905050506118e0565b604051808215151515815260200191505060405180910390f35b34801561079457600080fd5b5061079d611b2f565b604051808273ffffffffffffffffffffffffffffffffffffffff1673ffffffffffffffffffffffffffffffffffffffff16815260200191505060405180910390f35b3480156107eb57600080fd5b506107f4611b37565b604051808273ffffffffffffffffffffffffffffffffffffffff1673ffffffffffffffffffffffffffffffffffffffff16815260200191505060405180910390f35b34801561084257600080fd5b5061088f6004803603604081101561085957600080fd5b81019080803573ffffffffffffffffffffffffffffffffffffffff16906020019092919080359060200190929190505050611b5d565b604051808215151515815260200191505060405180910390f35b3480156108b557600080fd5b50610918600480360360408110156108cc57600080fd5b81019080803573ffffffffffffffffffffffffffffffffffffffff169060200190929190803573ffffffffffffffffffffffffffffffffffffffff169060200190929190505050611cc1565b6040518082815260200191505060405180910390f35b34801561093a57600080fd5b5061097d6004803603602081101561095157600080fd5b81019080803573ffffffffffffffffffffffffffffffffffffffff169060200190929190505050611d48565b6040518082815260200191505060405180910390f35b34801561099f57600080fd5b506109e2600480360360208110156109b657600080fd5b81019080803573ffffffffffffffffffffffffffffffffffffffff169060200190929190505050611d91565b005b60038054600181600116156101000203166002900480601f016020809104026020016040519081016040528092919081815260200182805460018160011615610100020316600290048015610a7a5780601f10610a4f57610100808354040283529160200191610a7a565b820191906000526020600020905b815481529060010190602001808311610a5d57829003601f168201915b505050505081565b600081600860003373ffffffffffffffffffffffffffffffffffffffff1673ffffffffffffffffffffffffffffffffffffffff16815260200190815260200160002060008573ffffffffffffffffffffffffffffffffffffffff1673ffffffffffffffffffffffffffffffffffffffff168152602001908152602001600020819055508273ffffffffffffffffffffffffffffffffffffffff163373ffffffffffffffffffffffffffffffffffffffff167f8c5be1e5ebec7d5bd14f71427d1e84f3dd0314c0f7b2291e5b200ac8c7c3b925846040518082815260200191505060405180910390a36001905092915050565b6000610bca600660008073ffffffffffffffffffffffffffffffffffffffff1673ffffffffffffffffffffffffffffffffffffffff16815260200190815260200160002054600554611e3090919063ffffffff16565b905090565b6000610c2382600660008773ffffffffffffffffffffffffffffffffffffffff1673ffffffffffffffffffffffffffffffffffffffff16815260200190815260200160002054611e3090919063ffffffff16565b600660008673ffffffffffffffffffffffffffffffffffffffff1673ffffffffffffffffffffffffffffffffffffffff16815260200190815260200160002081905550610cf582600860008773ffffffffffffffffffffffffffffffffffffffff1673ffffffffffffffffffffffffffffffffffffffff16815260200190815260200160002060003373ffffffffffffffffffffffffffffffffffffffff1673ffffffffffffffffffffffffffffffffffffffff16815260200190815260200160002054611e3090919063ffffffff16565b600860008673ffffffffffffffffffffffffffffffffffffffff1673ffffffffffffffffffffffffffffffffffffffff16815260200190815260200160002060003373ffffffffffffffffffffffffffffffffffffffff1673ffffffffffffffffffffffffffffffffffffffff16815260200190815260200160002081905550610dc782600660008673ffffffffffffffffffffffffffffffffffffffff1673ffffffffffffffffffffffffffffffffffffffff16815260200190815260200160002054611e4c90919063ffffffff16565b600660008573ffffffffffffffffffffffffffffffffffffffff1673ffffffffffffffffffffffffffffffffffffffff168152602001908152602001600020819055508273ffffffffffffffffffffffffffffffffffffffff168473ffffffffffffffffffffffffffffffffffffffff167fddf252ad1be2c89b69c2b068fc378daa952ba7f163c4a11628f55a4df523b3ef846040518082815260200191505060405180910390a3600190509392505050565b600460009054906101000a900460ff1681565b600080821415610fc657610ee983600660008873ffffffffffffffffffffffffffffffffffffffff1673ffffffffffffffffffffffffffffffffffffffff16815260200190815260200160002054611e3090919063ffffffff16565b600660008773ffffffffffffffffffffffffffffffffffffffff1673ffffffffffffffffffffffffffffffffffffffff16815260200190815260200160002081905550610f7e83600760008773ffffffffffffffffffffffffffffffffffffffff1673ffffffffffffffffffffffffffffffffffffffff16815260200190815260200160002054611e4c90919063ffffffff16565b600760008673ffffffffffffffffffffffffffffffffffffffff1673ffffffffffffffffffffffffffffffffffffffff16815260200190815260200160002081905550611239565b60018214156110fe5761102183600760008873ffffffffffffffffffffffffffffffffffffffff1673ffffffffffffffffffffffffffffffffffffffff16815260200190815260200160002054611e3090919063ffffffff16565b600760008773ffffffffffffffffffffffffffffffffffffffff1673ffffffffffffffffffffffffffffffffffffffff168152602001908152602001600020819055506110b683600660008773ffffffffffffffffffffffffffffffffffffffff1673ffffffffffffffffffffffffffffffffffffffff16815260200190815260200160002054611e4c90919063ffffffff16565b600660008673ffffffffffffffffffffffffffffffffffffffff1673ffffffffffffffffffffffffffffffffffffffff16815260200190815260200160002081905550611238565b60028214156112365761115983600760008873ffffffffffffffffffffffffffffffffffffffff1673ffffffffffffffffffffffffffffffffffffffff16815260200190815260200160002054611e3090919063ffffffff16565b600760008773ffffffffffffffffffffffffffffffffffffffff1673ffffffffffffffffffffffffffffffffffffffff168152602001908152602001600020819055506111ee83600760008773ffffffffffffffffffffffffffffffffffffffff1673ffffffffffffffffffffffffffffffffffffffff16815260200190815260200160002054611e4c90919063ffffffff16565b600760008673ffffffffffffffffffffffffffffffffffffffff1673ffffffffffffffffffffffffffffffffffffffff16815260200190815260200160002081905550611237565b5b5b5b8373ffffffffffffffffffffffffffffffffffffffff168573ffffffffffffffffffffffffffffffffffffffff167f2a98f44c2e4354e89bd6d840df8a26a2266846b85f9e8b408f0d83fcf1f97ee38585604051808381526020018281526020019250505060405180910390a360019050949350505050565b6000600660008373ffffffffffffffffffffffffffffffffffffffff1673ffffffffffffffffffffffffffffffffffffffff168152602001908152602001600020549050919050565b600160009054906101000a900473ffffffffffffffffffffffffffffffffffffffff1673ffffffffffffffffffffffffffffffffffffffff163373ffffffffffffffffffffffffffffffffffffffff1614151561135757600080fd5b600160009054906101000a900473ffffffffffffffffffffffffffffffffffffffff1673ffffffffffffffffffffffffffffffffffffffff166000809054906101000a900473ffffffffffffffffffffffffffffffffffffffff1673ffffffffffffffffffffffffffffffffffffffff167f8be0079c531659141344cd1fd0a4f28419497f9722a3daafe3b4186f6b6457e060405160405180910390a3600160009054906101000a900473ffffffffffffffffffffffffffffffffffffffff166000806101000a81548173ffffffffffffffffffffffffffffffffffffffff021916908373ffffffffffffffffffffffffffffffffffffffff1602179055506000600160006101000a81548173ffffffffffffffffffffffffffffffffffffffff021916908373ffffffffffffffffffffffffffffffffffffffff160217905550565b6000809054906101000a900473ffffffffffffffffffffffffffffffffffffffff1681565b60028054600181600116156101000203166002900480601f0160208091040260200160405190810160405280929190818152602001828054600181600116156101000203166002900480156115555780601f1061152a57610100808354040283529160200191611555565b820191906000526020600020905b81548152906001019060200180831161153857829003601f168201915b505050505081565b60006115b182600660003373ffffffffffffffffffffffffffffffffffffffff1673ffffffffffffffffffffffffffffffffffffffff16815260200190815260200160002054611e3090919063ffffffff16565b600660003373ffffffffffffffffffffffffffffffffffffffff1673ffffffffffffffffffffffffffffffffffffffff1681526020019081526020016000208190555061164682600660008673ffffffffffffffffffffffffffffffffffffffff1673ffffffffffffffffffffffffffffffffffffffff16815260200190815260200160002054611e4c90919063ffffffff16565b600660008573ffffffffffffffffffffffffffffffffffffffff1673ffffffffffffffffffffffffffffffffffffffff168152602001908152602001600020819055508273ffffffffffffffffffffffffffffffffffffffff163373ffffffffffffffffffffffffffffffffffffffff167fddf252ad1be2c89b69c2b068fc378daa952ba7f163c4a11628f55a4df523b3ef846040518082815260200191505060405180910390a36001905092915050565b600081600660008573ffffffffffffffffffffffffffffffffffffffff1673ffffffffffffffffffffffffffffffffffffffff1681526020019081526020016000205402905092915050565b600061179882600660008773ffffffffffffffffffffffffffffffffffffffff1673ffffffffffffffffffffffffffffffffffffffff16815260200190815260200160002054611e3090919063ffffffff16565b600660008673ffffffffffffffffffffffffffffffffffffffff1673ffffffffffffffffffffffffffffffffffffffff1681526020019081526020016000208190555061182d82600660008673ffffffffffffffffffffffffffffffffffffffff1673ffffffffffffffffffffffffffffffffffffffff16815260200190815260200160002054611e4c90919063ffffffff16565b600660008573ffffffffffffffffffffffffffffffffffffffff1673ffffffffffffffffffffffffffffffffffffffff168152602001908152602001600020819055508273ffffffffffffffffffffffffffffffffffffffff168473ffffffffffffffffffffffffffffffffffffffff167fddf252ad1be2c89b69c2b068fc378daa952ba7f163c4a11628f55a4df523b3ef846040518082815260200191505060405180910390a3600190509392505050565b600082600860003373ffffffffffffffffffffffffffffffffffffffff1673ffffffffffffffffffffffffffffffffffffffff16815260200190815260200160002060008673ffffffffffffffffffffffffffffffffffffffff1673ffffffffffffffffffffffffffffffffffffffff168152602001908152602001600020819055508373ffffffffffffffffffffffffffffffffffffffff163373ffffffffffffffffffffffffffffffffffffffff167f8c5be1e5ebec7d5bd14f71427d1e84f3dd0314c0f7b2291e5b200ac8c7c3b925856040518082815260200191505060405180910390a38373ffffffffffffffffffffffffffffffffffffffff16638f4ffcb1338530866040518563ffffffff167c0100000000000000000000000000000000000000000000000000000000028152600401808573ffffffffffffffffffffffffffffffffffffffff1673ffffffffffffffffffffffffffffffffffffffff1681526020018481526020018373ffffffffffffffffffffffffffffffffffffffff1673ffffffffffffffffffffffffffffffffffffffff16815260200180602001828103825283818151815260200191508051906020019080838360005b83811015611abd578082015181840152602081019050611aa2565b50505050905090810190601f168015611aea5780820380516001836020036101000a031916815260200191505b5095505050505050600060405180830381600087803b158015611b0c57600080fd5b505af1158015611b20573d6000803e3d6000fd5b50505050600190509392505050565b600030905090565b600160009054906101000a900473ffffffffffffffffffffffffffffffffffffffff1681565b60008060009054906101000a900473ffffffffffffffffffffffffffffffffffffffff1673ffffffffffffffffffffffffffffffffffffffff163373ffffffffffffffffffffffffffffffffffffffff16141515611bba57600080fd5b8273ffffffffffffffffffffffffffffffffffffffff1663a9059cbb6000809054906101000a900473ffffffffffffffffffffffffffffffffffffffff16846040518363ffffffff167c0100000000000000000000000000000000000000000000000000000000028152600401808373ffffffffffffffffffffffffffffffffffffffff1673ffffffffffffffffffffffffffffffffffffffff16815260200182815260200192505050602060405180830381600087803b158015611c7e57600080fd5b505af1158015611c92573d6000803e3d6000fd5b505050506040513d6020811015611ca857600080fd5b8101908080519060200190929190505050905092915050565b6000600860008473ffffffffffffffffffffffffffffffffffffffff1673ffffffffffffffffffffffffffffffffffffffff16815260200190815260200160002060008373ffffffffffffffffffffffffffffffffffffffff1673ffffffffffffffffffffffffffffffffffffffff16815260200190815260200160002054905092915050565b6000600760008373ffffffffffffffffffffffffffffffffffffffff1673ffffffffffffffffffffffffffffffffffffffff168152602001908152602001600020549050919050565b6000809054906101000a900473ffffffffffffffffffffffffffffffffffffffff1673ffffffffffffffffffffffffffffffffffffffff163373ffffffffffffffffffffffffffffffffffffffff16141515611dec57600080fd5b80600160006101000a81548173ffffffffffffffffffffffffffffffffffffffff021916908373ffffffffffffffffffffffffffffffffffffffff16021790555050565b6000828211151515611e4157600080fd5b818303905092915050565b60008183019050828110151515611e6257600080fd5b9291505056fea165627a7a72305820e1def82d557ea9f5d48b5547f34a822008f95b67ccd408d80b688cdb68f2615d0029",
  "source": "pragma solidity >=0.4.25 <0.6.0;\r\n\r\n// ----------------------------------------------------------------------------\r\n// 'SWAY' 'Sway Token' token contract\r\n//\r\n// Symbol      : SWAY\r\n// Name        : Sway Token\r\n// Total supply: 1,000,000.000000000000000000\r\n// Decimals    : 18\r\n// ----------------------------------------------------------------------------\r\n\r\n\r\n// ----------------------------------------------------------------------------\r\n// Safe maths\r\n// ----------------------------------------------------------------------------\r\nlibrary SafeMath {\r\n    function add(uint a, uint b) internal pure returns (uint c) {\r\n        c = a + b;\r\n        require(c >= a);\r\n    }\r\n    function sub(uint a, uint b) internal pure returns (uint c) {\r\n        require(b <= a);\r\n        c = a - b;\r\n    }\r\n    function mul(uint a, uint b) internal pure returns (uint c) {\r\n        c = a * b;\r\n        require(a == 0 || c / a == b);\r\n    }\r\n    function div(uint a, uint b) internal pure returns (uint c) {\r\n        require(b > 0);\r\n        c = a / b;\r\n    }\r\n}\r\n\r\n\r\n// ----------------------------------------------------------------------------\r\n// ERC Token Standard #20 Interface\r\n// https://github.com/ethereum/EIPs/blob/master/EIPS/eip-20.md\r\n// ----------------------------------------------------------------------------\r\ncontract ERC20Interface {\r\n    function totalSupply() public view returns (uint);\r\n    function balanceOf(address tokenOwner) public view returns (uint balance);\r\n    function allowance(address tokenOwner, address spender) public view returns (uint remaining);\r\n    function transfer(address to, uint tokens) public returns (bool success);\r\n    function approve(address spender, uint tokens) public returns (bool success);\r\n    function transferFrom(address from, address to, uint tokens) public returns (bool success);\r\n\r\n    event Transfer(address indexed from, address indexed to, uint tokens);\r\n    event Margin(address indexed from, address indexed to, uint tokens, uint destorigin);\r\n    event Approval(address indexed tokenOwner, address indexed spender, uint tokens);\r\n}\r\n\r\n\r\n// ----------------------------------------------------------------------------\r\n// Contract function to receive approval and execute function in one call\r\n//\r\n// Borrowed from MiniMeToken\r\n// ----------------------------------------------------------------------------\r\ncontract ApproveAndCallFallBack {\r\n    function receiveApproval(address from, uint256 tokens, address token, bytes memory data) public;\r\n}\r\n\r\n\r\n// ----------------------------------------------------------------------------\r\n// Owned contract\r\n// ----------------------------------------------------------------------------\r\ncontract Owned {\r\n    address public owner;\r\n    address public newOwner;\r\n\r\n    event OwnershipTransferred(address indexed _from, address indexed _to);\r\n\r\n    constructor() public {\r\n        owner = msg.sender;\r\n    }\r\n\r\n    modifier onlyOwner {\r\n        require(msg.sender == owner);\r\n        _;\r\n    }\r\n\r\n    function transferOwnership(address _newOwner) public onlyOwner {\r\n        newOwner = _newOwner;\r\n    }\r\n    function acceptOwnership() public {\r\n        require(msg.sender == newOwner);\r\n        emit OwnershipTransferred(owner, newOwner);\r\n        owner = newOwner;\r\n        newOwner = address(0);\r\n    }\r\n}\r\n\r\n\r\n// ----------------------------------------------------------------------------\r\n// ERC20 Token, with the addition of symbol, name and decimals and a\r\n// fixed supply\r\n// ----------------------------------------------------------------------------\r\ncontract SwayToken is ERC20Interface, Owned {\r\n    using SafeMath for uint;\r\n\r\n    string public symbol;\r\n    string public name;\r\n    uint8 public decimals;\r\n    uint _totalSupply;\r\n\r\n    mapping(address => uint) balances;\r\n    mapping(address => uint) margin;\r\n    mapping(address => mapping(address => uint)) allowed;\r\n\r\n\r\n    // ------------------------------------------------------------------------\r\n    // Constructor\r\n    // ------------------------------------------------------------------------\r\n    constructor() public {\r\n        symbol = \"SWAY\";\r\n        name = \"SWAY Token\";\r\n        decimals = 2;\r\n        _totalSupply = 1000000 * 10**uint(decimals);\r\n        balances[owner] = _totalSupply;\r\n        emit Transfer(address(0), owner, _totalSupply);\r\n\t}\r\n\r\n    // ------------------------------------------------------------------------\r\n    // Owners Adress\r\n    // ------------------------------------------------------------------------\r\n    function contractOwner() public view returns (address) {\r\n        return address(this);\r\n    }\r\n\r\n\r\n    // ------------------------------------------------------------------------\r\n    // Total supply\r\n    // ------------------------------------------------------------------------\r\n    function totalSupply() public view returns (uint) {\r\n        return _totalSupply.sub(balances[address(0)]);\r\n    }\r\n\r\n\r\n    // ------------------------------------------------------------------------\r\n    // Get the token balance for account `tokenOwner`\r\n    // ------------------------------------------------------------------------\r\n    function balanceOf(address tokenOwner) public view returns (uint balance) {\r\n        return balances[tokenOwner];\r\n    }\r\n\r\n    // ------------------------------------------------------------------------\r\n    // Get the margin balance for account `tokenOwner`\r\n    // ------------------------------------------------------------------------\r\n    function marginBalanceOf(address tokenOwner) public view returns (uint balance) {\r\n        return margin[tokenOwner];\r\n    }\r\n\r\n\r\n    // ------------------------------------------------------------------------\r\n    // Get the token balance for account `tokenOwner` in Eth\r\n    // ------------------------------------------------------------------------\r\n    function balanceOfInEth(address tokenOwner, uint conversionRate) public view returns (uint balance) {\r\n        return balances[tokenOwner] * conversionRate;\r\n    }\r\n\r\n\r\n    // ------------------------------------------------------------------------\r\n    // Transfer the balance from token owner's account to `to` account\r\n    // - Owner's account must have sufficient balance to transfer\r\n    // - 0 value transfers are allowed\r\n    // ------------------------------------------------------------------------\r\n    function transfer(address to, uint tokens) public returns (bool success) {\r\n        balances[msg.sender] = balances[msg.sender].sub(tokens);\r\n        balances[to] = balances[to].add(tokens);\r\n        emit Transfer(msg.sender, to, tokens);\r\n        return true;\r\n    }\r\n\r\n\r\n    // ------------------------------------------------------------------------\r\n    // Token owner can approve for `spender` to transferFrom(...) `tokens`\r\n    // from the token owner's account\r\n    //\r\n    // https://github.com/ethereum/EIPs/blob/master/EIPS/eip-20-token-standard.md\r\n    // recommends that there are no checks for the approval double-spend attack\r\n    // as this should be implemented in user interfaces\r\n    // ------------------------------------------------------------------------\r\n    function approve(address spender, uint tokens) public returns (bool success) {\r\n        allowed[msg.sender][spender] = tokens;\r\n        emit Approval(msg.sender, spender, tokens);\r\n        return true;\r\n    }\r\n\r\n\r\n    // ------------------------------------------------------------------------\r\n    // Transfer `tokens` from the `from` account to the `to` account\r\n    //\r\n    // The calling account must already have sufficient tokens approve(...)-d\r\n    // for spending from the `from` account and\r\n    // - From account must have sufficient balance to transfer\r\n    // - Spender must have sufficient allowance to transfer\r\n    // - 0 value transfers are allowed\r\n    // ------------------------------------------------------------------------\r\n    function transferFrom(address from, address to, uint tokens) public returns (bool success) {\r\n        balances[from] = balances[from].sub(tokens);\r\n        allowed[from][msg.sender] = allowed[from][msg.sender].sub(tokens);\r\n        balances[to] = balances[to].add(tokens);\r\n        emit Transfer(from, to, tokens);\r\n        return true;\r\n    }\r\n\r\n    // ------------------------------------------------------------------------\r\n    // Transfer `tokens` from the `from` account to the `to` account\r\n    // - From account must have sufficient balance to transfer\r\n    // - 0 value transfers are allowed\r\n    // ------------------------------------------------------------------------\r\n    function transferFromOwner(address from, address to, uint tokens) public returns (bool success) {\r\n        balances[from] = balances[from].sub(tokens);\r\n        balances[to] = balances[to].add(tokens);\r\n        emit Transfer(from, to, tokens);\r\n        return true;\r\n    }\r\n\r\n    // ------------------------------------------------------------------------\r\n    // Transfer `tokens` from the `from` account to the margin account\r\n    // - From account must have sufficient balance to transfer\r\n    // - 0 value transfers are allowed\r\n    // ------------------------------------------------------------------------\r\n    function transferMargin(address from, address to, uint tokens, uint destorigin) public returns (bool success) {               \r\n        //transfer from balance to margin\r\n        if(destorigin == 0) {\r\n            balances[from] = balances[from].sub(tokens);\r\n            margin[to] = margin[to].add(tokens);\r\n        //transfer from margin to balance\r\n        } else if (destorigin == 1) {\r\n            margin[from] = margin[from].sub(tokens);\r\n            balances[to] = balances[to].add(tokens);\r\n        //transfer from margin to margin\r\n        } else if (destorigin == 2) {\r\n            margin[from] = margin[from].sub(tokens);\r\n            margin[to] = margin[to].add(tokens);\r\n        } else {}       \r\n        emit Margin(from, to, tokens, destorigin);\r\n        return true;\r\n    }\r\n\r\n    // ------------------------------------------------------------------------\r\n    // Returns the amount of tokens approved by the owner that can be\r\n    // transferred to the spender's account\r\n    // ------------------------------------------------------------------------\r\n    function allowance(address tokenOwner, address spender) public view returns (uint remaining) {\r\n        return allowed[tokenOwner][spender];\r\n    }\r\n\r\n\r\n    // ------------------------------------------------------------------------\r\n    // Token owner can approve for `spender` to transferFrom(...) `tokens`\r\n    // from the token owner's account. The `spender` contract function\r\n    // `receiveApproval(...)` is then executed\r\n    // ------------------------------------------------------------------------\r\n    function approveAndCall(address spender, uint tokens, bytes memory data) public returns (bool success) {\r\n        allowed[msg.sender][spender] = tokens;\r\n        emit Approval(msg.sender, spender, tokens);\r\n        ApproveAndCallFallBack(spender).receiveApproval(msg.sender, tokens, address(this), data);\r\n        return true;\r\n    }\r\n\r\n\r\n    // ------------------------------------------------------------------------\r\n    // Don't accept ETH\r\n    // ------------------------------------------------------------------------\r\n    function () external payable {\r\n        revert();\r\n    }\r\n\r\n\r\n    // ------------------------------------------------------------------------\r\n    // Owner can transfer out any accidentally sent ERC20 tokens\r\n    // ------------------------------------------------------------------------\r\n    function transferAnyERC20Token(address tokenAddress, uint tokens) public onlyOwner returns (bool success) {\r\n        return ERC20Interface(tokenAddress).transfer(owner, tokens);\r\n    }\r\n}",
  "sourcePath": "C:/Users/Chris/My Projects/FinaroWeb/ether/contracts/SwayToken.sol",
  "compiler": {
    "name": "solc",
    "version": "0.5.0+commit.1d4f565a.Emscripten.clang"
  },
  "schemaVersion": "3.0.6",
  "updatedAt": "2019-04-02T15:40:49.629Z",
  "devdoc": {
    "methods": {}
  },
  "userdoc": {
    "methods": {}
  }
}