{
  "contractName": "HoldingContract",
  "abi": [
    {
      "constant": true,
      "inputs": [
        {
          "name": "",
          "type": "uint256"
        }
      ],
      "name": "execplayers",
      "outputs": [
        {
          "name": "",
          "type": "address"
        }
      ],
      "payable": false,
      "stateMutability": "view",
      "type": "function"
    },
    {
      "constant": true,
      "inputs": [
        {
          "name": "",
          "type": "address"
        }
      ],
      "name": "execution",
      "outputs": [
        {
          "name": "amountBet",
          "type": "uint256"
        },
        {
          "name": "gameId",
          "type": "uint256"
        },
        {
          "name": "sideId",
          "type": "uint256"
        }
      ],
      "payable": false,
      "stateMutability": "view",
      "type": "function"
    },
    {
      "constant": true,
      "inputs": [],
      "name": "owner",
      "outputs": [
        {
          "name": "",
          "type": "address"
        }
      ],
      "payable": false,
      "stateMutability": "view",
      "type": "function"
    },
    {
      "inputs": [],
      "payable": false,
      "stateMutability": "nonpayable",
      "type": "constructor"
    },
    {
      "payable": true,
      "stateMutability": "payable",
      "type": "fallback"
    },
    {
      "constant": true,
      "inputs": [],
      "name": "getowner",
      "outputs": [
        {
          "name": "contractowner",
          "type": "address"
        }
      ],
      "payable": false,
      "stateMutability": "view",
      "type": "function"
    },
    {
      "constant": true,
      "inputs": [
        {
          "name": "player",
          "type": "address"
        }
      ],
      "name": "getplayeramount",
      "outputs": [
        {
          "name": "info",
          "type": "uint256"
        }
      ],
      "payable": false,
      "stateMutability": "view",
      "type": "function"
    },
    {
      "constant": false,
      "inputs": [
        {
          "name": "_gameId",
          "type": "uint256"
        },
        {
          "name": "_sideId",
          "type": "uint256"
        }
      ],
      "name": "deposit",
      "outputs": [
        {
          "name": "success",
          "type": "bool"
        }
      ],
      "payable": true,
      "stateMutability": "payable",
      "type": "function"
    },
    {
      "constant": true,
      "inputs": [
        {
          "name": "player",
          "type": "address"
        }
      ],
      "name": "checkPlayerExists",
      "outputs": [
        {
          "name": "",
          "type": "bool"
        }
      ],
      "payable": false,
      "stateMutability": "view",
      "type": "function"
    }
  ],
  "bytecode": "0x608060405234801561001057600080fd5b5033600260006101000a81548173ffffffffffffffffffffffffffffffffffffffff021916908373ffffffffffffffffffffffffffffffffffffffff16021790555061062c806100616000396000f300608060405260043610610083576000357c0100000000000000000000000000000000000000000000000000000000900463ffffffff16806309e708c5146100855780633c286f0e146100f25780634081d916146101575780638da5cb5b146101b2578063942ca01a14610209578063e2bbb15814610260578063fe0174bd146102a2575b005b34801561009157600080fd5b506100b0600480360381019080803590602001909291905050506102f9565b604051808273ffffffffffffffffffffffffffffffffffffffff1673ffffffffffffffffffffffffffffffffffffffff16815260200191505060405180910390f35b3480156100fe57600080fd5b50610133600480360381019080803573ffffffffffffffffffffffffffffffffffffffff169060200190929190505050610337565b60405180848152602001838152602001828152602001935050505060405180910390f35b34801561016357600080fd5b50610198600480360381019080803573ffffffffffffffffffffffffffffffffffffffff169060200190929190505050610361565b604051808215151515815260200191505060405180910390f35b3480156101be57600080fd5b506101c7610404565b604051808273ffffffffffffffffffffffffffffffffffffffff1673ffffffffffffffffffffffffffffffffffffffff16815260200191505060405180910390f35b34801561021557600080fd5b5061024a600480360381019080803573ffffffffffffffffffffffffffffffffffffffff16906020019092919050505061042a565b6040518082815260200191505060405180910390f35b6102886004803603810190808035906020019092919080359060200190929190505050610476565b604051808215151515815260200191505060405180910390f35b3480156102ae57600080fd5b506102b76105d6565b604051808273ffffffffffffffffffffffffffffffffffffffff1673ffffffffffffffffffffffffffffffffffffffff16815260200191505060405180910390f35b60008181548110151561030857fe5b906000526020600020016000915054906101000a900473ffffffffffffffffffffffffffffffffffffffff1681565b60036020528060005260406000206000915090508060000154908060010154908060020154905083565b600080600090505b6000805490508110156103f9578273ffffffffffffffffffffffffffffffffffffffff1660008281548110151561039c57fe5b9060005260206000200160009054906101000a900473ffffffffffffffffffffffffffffffffffffffff1673ffffffffffffffffffffffffffffffffffffffff1614156103ec57600191506103fe565b8080600101915050610369565b600091505b50919050565b600260009054906101000a900473ffffffffffffffffffffffffffffffffffffffff1681565b6000600360008373ffffffffffffffffffffffffffffffffffffffff1673ffffffffffffffffffffffffffffffffffffffff168152602001908152602001600020600001549050919050565b600061048133610361565b15156104ee5760003390806001815401808255809150509060018203906000526020600020016000909192909190916101000a81548173ffffffffffffffffffffffffffffffffffffffff021916908373ffffffffffffffffffffffffffffffffffffffff160217905550505b34600360003373ffffffffffffffffffffffffffffffffffffffff1673ffffffffffffffffffffffffffffffffffffffff1681526020019081526020016000206000016000828254019250508190555082600360003373ffffffffffffffffffffffffffffffffffffffff1673ffffffffffffffffffffffffffffffffffffffff1681526020019081526020016000206001018190555081600360003373ffffffffffffffffffffffffffffffffffffffff1673ffffffffffffffffffffffffffffffffffffffff168152602001908152602001600020600201819055506001905092915050565b6000600260009054906101000a900473ffffffffffffffffffffffffffffffffffffffff169050905600a165627a7a72305820f6e34e2933cc7f9d290ab9b1efba637125766de90ba88d4efd5a3177751158960029",
  "source": "pragma solidity >=0.4.22 <0.6.0;\r\n\r\ncontract HoldingContract {   \r\n\r\n    address[] public execplayers;\r\n    address[] private winners;\r\n    address public owner;\r\n\r\n    struct Player {\r\n        uint256 amountBet;\r\n        uint gameId;\r\n        uint sideId;\r\n    }\r\n    // The address of the player and => the user info\r\n    mapping(address => Player) public execution;    \r\n\r\n    constructor() public{\r\n        owner = msg.sender;\r\n    }\r\n\r\n    function getowner() public view returns(address contractowner){\r\n        return owner;\r\n    }\r\n\r\n    function getplayeramount(address player) public view returns(uint256 info){        \r\n        return execution[player].amountBet;\r\n    }\r\n\r\n\r\n    function () external payable {}    \r\n\r\n    /*\r\n        msg.sender and msg.value are implicitly available, contain information\r\n        about the adress of a caller and amount of ether they sent with the call (in wei)\r\n    */\r\n    function deposit(uint _gameId, uint _sideId) public payable returns(bool success) {\r\n        \r\n        if(!checkPlayerExists(msg.sender))\r\n            execplayers.push(msg.sender);\r\n            \r\n        execution[msg.sender].amountBet += msg.value;\r\n        execution[msg.sender].gameId = _gameId;\r\n        execution[msg.sender].sideId = _sideId;\r\n        \r\n        return true;\r\n    }\r\n\r\n    /*function balancechk(address who, uint arr) public view returns(uint256 amt){\r\n        return execution[who].amountBet;        \r\n    }*/\r\n    \r\n    function reset() private returns(bool success){\r\n        for (uint256 j = 0; j < execplayers.length; j++) {\r\n            address playerexec = execplayers[j];\r\n            delete execution[playerexec];\r\n        }\r\n        execplayers.length = 0;\r\n        return true;\r\n    }\r\n\r\n    function checkPlayerExists(address player) public view returns(bool) {\r\n        for (uint256 i = 0; i < execplayers.length; i++) {\r\n            if (execplayers[i] == player) return true;\r\n        }\r\n        return false;\r\n    }\r\n\r\n}",
  "sourcePath": "C:\\Users\\Chris\\My Projects\\FinaroEngine.Websocket\\wwwroot\\ethercontracts\\contracts\\HoldingContract.sol",
  "compiler": {
    "name": "solc",
    "version": "0.4.24+commit.e67f0147.Emscripten.clang"
  },
  "schemaVersion": "2.0.1",
  "updatedAt": "2018-12-28T10:51:30.994Z"
}